:020000040040BA
:10000000C03800201D114000191140001911400096
:1000100019114000191140001911400000000000A2
:100020000000000000000000000000001911400066
:100030001911400000000000191140001911400082
:100040001911400019114000191140001911400008
:1000500019114000191140001911400019114000F8
:100060001911400019114000000000009D0F4000D0
:10007000B10F4000C50F4000191140001911400098
:10008000000000000000000019114000191140009C
:10009000191140001911400019114000B11340001E
:1000A00019114000191140001911400019114000A8
:1000B00019114000E91440001911400019114000C5
:1000C00019114000191140001911400010B5054CDC
:1000D000237833B9044B13B10448AFF300800123F4
:1000E000237010BD40040020000000000CA8410057
:1000F000084B10B51BB108480849AFF30080084809
:10010000036803B910BD074B002BFBD0BDE81040BE
:10011000184700BF000000000CA841004404002064
:100120000CA841000000000030B401240460002449
:10013000446040F20225C0F82051C0F80441C0F8E4
:10014000144145682B435200B1FBF2F14A1E1202E2
:1001500092B213434360204630BC70474368194352
:10016000D201D2B211434160704700BF10B444685D
:100170002243090601F070610A431B0703F0405354
:10018000134343605DF8044B704700BF02230360D4
:10019000704700BF01238B40036170470F299ABF4E
:1001A000143150F821000020704700BF41627047B1
:1001B000006B7047D0F8943043F01003C0F89430CF
:1001C000704700BF01230360704700BF41B143681F
:1001D00043F480734360436843F01003436007E0D7
:1001E000436843F480734360436823F01003436023
:1001F00000207047006B7047016270474368012917
:1002000006D823F4981343EA014141600020704767
:1002100001207047012904D801238B40036100208D
:1002200070470120704700BFC0F89410002070474D
:1002300010B489014318022444504FF0FF319962F1
:10024000196A5A605DF8044B704700BF89010523A5
:100250004350704700EB8111CA61704700EB811178
:100260004A62704700EB8111086A704710B50E486A
:100270000E4B984700203E210D4B98470D4CA04750
:100280000028FCD00C4B98470C4A0D4B9A620D4C41
:10029000A0470028FCD010200B4B98470B4B9847E9
:1002A0000148024B984710BD000E2707E11240009D
:1002B0004110400095104000A5104000013F132060
:1002C00000040E40B5104000D90F4000CD11400091
:1002D00038B54FF40042244B5A600B20234CA04702
:1002E0000C20A0470D20A04713204FF06051204C58
:1002F000A04714204FF06051A04723201D49A0477C
:100300004C201D49A0471D484FF4C0614FF00062CA
:100310001B4B98471B4D40202946A04741202946AA
:10032000A04742202946A04743202946A047442011
:100330002946A04745202946A04746202946A047F0
:1003400047202946A0474B202946A0474820294658
:10035000A0474F202946A04753202946A0474D20BB
:100360004FF04051A04738BD50140E40C51040001A
:10037000F50C40007900002859000028000E0E40BE
:10038000190E40000100000870B483B0C0F11100E4
:10039000102828BF1020002808BF01200021104E7F
:1003A0004FF40055182475630194019B5A1E019265
:1003B000002BFAD135630194019B5A1E0192002B48
:1003C000FAD101318142EED34FF400330193019B06
:1003D0005A1E0192002BFAD103B070BC704700BFC7
:1003E00000120E4082B04FF40052064B5A634FF495
:1003F00000330193019B5A1E0192002BFAD102B0E7
:10040000704700BF00120E400A4B1B78012B06D12B
:100410004FF0C24300221A7022221A707047022B3A
:1004200007D14FF0C2432C221A7000221A703C22CE
:100430001A7070471C080020C0F30742034B1A7063
:10044000C0F307221A70C0B2187070470200006132
:100450002DE9F8430746884631F0070918D00446CD
:100460000026124D57F82600A8476068A847A068E4
:10047000A847E068A8472069A8476069A847A0691D
:10048000A847E069A847083620344E45EAD300E083
:100490000026B04508D907EB8604044D54F8040B38
:1004A000A8470136B045F9D8BDE8F88339044000C3
:1004B0004FF0C24300221A7018700A0A02331A70F1
:1004C000C9B21970704700BF10B44FF0C243002486
:1004D0001C7018704AB14B1E501E51FA80F104482E
:1004E00013F8012F02708B42FAD15DF8044B70476C
:1004F0000200006182B000230193019B984211D950
:100500000021094A0191019B934205D8019B0133C7
:100510000193019B9342F9D9019B01330193019B04
:100520008342EFD302B070479F86010030B4154C70
:1005300024680568A54224BF04F1FF3505601568ED
:10054000AC429CBF04F1FF3414600F4C24680D686A
:10055000A54224BF04F1FF350D601D68AC429CBF6D
:1005600004F1FF341C6004681568AC4284BF056068
:1005700014600A681868824284BF08601A6030BC40
:10058000704700BF000000200400002082B04FF040
:10059000C24300221A70D3221A7002331A788DF8DF
:1005A00000201A788DF801201A788DF802201B7827
:1005B000DBB28DF80330D2B203EB02239BB249F2D7
:1005C0004132934204D102220E4B1A70002017E0F0
:1005D0004FF0C24300221A701A7002331A788DF855
:1005E00000201B78D2B203EB02239BB249F22532E2
:1005F000934204D10122034B1A70002000E0012035
:1006000002B070471C08002008B5094B1B78012B6D
:1006100005D1072040F23311064B984708BD022B45
:1006200004D1292000210A46034B984708BD00BF8A
:100630001C080020B1044000C9044000044A131FF4
:1006400002F56F7243F8040F9342FBD1704700BF6D
:100650005C0400202DE9F04182B00C4617461E468E
:10066000224B1B78012B14D185B250202946DFF88C
:100670008480C047791E2944512089B2C047A4B262
:1006800052202146C047711E2144532089B2C047E1
:1006900028E0022B26D1030A8DF80430C3B28DF86E
:1006A0000530013A1044000A8DF8060017461F4431
:1006B0008DF807702A2001A904220D4DA847230AAE
:1006C0008DF80430E3B28DF80530721E1444240A0C
:1006D0008DF8064016461E448DF807602B2001A9B0
:1006E0000422A84702B0BDE8F08100BF1C0800202A
:1006F000C9044000B104400038B5064B1B78012BFB
:1007000007D10C4601462020034DA8472120214651
:10071000A84738BD1C080020B10440002DE9F04373
:1007200083B00646AC4B9847002840F04F81F0223A
:10073000AA4B1A604FF4A072A94B1A60A94B1B7800
:10074000012B40F0B18007203321A74CA047102097
:100750000021A04700200121A04701204FF4807113
:10076000A04702204FF4E061A04704200021A047E9
:10077000082040F20721A04709200021A0470A20B5
:100780000021A0470C200021A0470D200021A047F8
:100790000F200021A04710200021A0471120002198
:1007A000A04712200021A04713200021A047C82005
:1007B0008E4DA847102041F29021A047112040F211
:1007C0002721A0473220A84712201B21A047322012
:1007D000A84713204FF48851A04729201921A0478A
:1007E0002B200D21A0473220A84730200021A04710
:1007F00031204FF40171A04732204FF40071A0471F
:1008000035200721A047362041F20441A047372078
:1008100040F20571A047382040F20531A047392049
:1008200040F20771A0473C2040F20171A0473D20F3
:100830000E21A04703204DF21001A04760204FF485
:100840002741A04761200121A0476A200021A0473D
:1008500080200021A04781200021A0478220002184
:10086000A04783200021A04784200021A0478520A5
:100870000021A04790201021A04792204FF4C06192
:10088000A04795204FF48871A047002001463268A8
:100890007368574CA047B068564B984700200146F4
:1008A000554B9847002094E0022B40F0918039236B
:1008B0008DF800302C238DF8013000248DF8024093
:1008C00034238DF8033002278DF80470CB2069465D
:1008D00005224A4DA8478DF80040AA238DF8013023
:1008E000B0238DF80230CF2069460322A847302379
:1008F0008DF80030F72069460122A84725238DF89E
:100900000030C02069460122A8474FF011098DF838
:100910000090C12069460122A8475C238DF8003071
:100920004C238DF80130C52069463A46A8479423E8
:100930008DF80030C72069460122A84785238DF82D
:1009400000304FF001088DF8018078238DF80230D7
:10095000E82069460322A8478DF800408DF8014041
:10096000EA2069463A46A84748238DF800303620E9
:1009700069464246A84706238DF800303A2069466A
:100980004246A8478DF8007082238DF80130272356
:100990008DF802308DF80340B62069460422A8473E
:1009A0002046214632687368114FB847B068114B32
:1009B0009847484669462246A8470A200B4B984765
:1009C000292069462246A847204602E0012000E08F
:1009D000012003B0BDE8F0838D0540000000002039
:1009E000040000201C080020B1044000F504400071
:1009F000550640003D064000F9064000C90440008D
:100A00002DE9F04184B0039002910192009303A874
:100A100002A901AA6B46224CA047039D029C0199A2
:100A20004A1C00994B1C28462146521B1B1B1D4C7F
:100A3000A047BDF80C00BDF808101B4B98471B4B96
:100A40009847029A009B9A1A019B03F10108039BA5
:100A5000C3EB080802FB0888154CA4FB0834E40922
:100A600007D0144FF026144D38463146A847013CB4
:100A7000FAD10F49A1FB0831C909C1EB01110D4899
:100A8000A8EB01110C4B9847002001460B4B1A684C
:100A90000B4B1B68034CA04704B0BDE8F08100BFBE
:100AA0002D05400055064000F906400009044000AD
:100AB000898888885C0400205104400000000020E0
:100AC0000400002030B585B00390029102440192E9
:100AD0000B44009303A802A901AA6B46224CA0472D
:100AE000039D029C01994A1C00994B1C28462146F3
:100AF000521B1B1B1D4CA0471D4B1B78012B1AD1F1
:100B0000BDF80C00BDF808101A4B98471A4B9847CF
:100B10000299009B5B1A0399019A511A089801FBEC
:100B200003F1164B984700200146154B1A68154BE8
:100B30001B68A04716E0022B14D10F4B984702996F
:100B4000009B5B1A0399019A511A089801FB03F163
:100B50000A4B984700200146094B1A68094B1B684D
:100B6000024CA04705B030BD2D05400055064000A1
:100B70001C080020F9064000090440005104400010
:100B8000000000200400002009014250704700BF0F
:100B900000EB01114A60704700EB01118A60704759
:100BA00000EB0111CA607047C0F8841052004FF486
:100BB0000043B3FBF2F2013AC2F30D02C0F88C20FD
:100BC000704700BF4264B1F1C05F2FD007D8B1F1C8
:100BD000006F14D0B1F1805F1ED039B97047B1F108
:100BE000205F37D004D8B1F1005F29D04260704750
:100BF000B1F1405F2ED0B1F1605F2BD0F6E710B4B9
:100C0000016F046FD343214019400167416F446F66
:100C100021400B4043671AE0036F13430367436FA0
:100C2000416F0B4023EA02034367DFE7036F016F65
:100C30000B4023EA02030367436F13434367D5E77F
:100C4000036F13430367436F13434367CEE7426069
:100C50005DF8044B704700BF416412F0010F14BFF0
:100C60004166016612F00A0F14BF0162416212F080
:100C7000020F02D0C0F8801004E012F0080F18BF75
:100C8000C0F8841041610160704700BF10B4416436
:100C9000019C0CB1416600E001660BB1016500E00A
:100CA00041650AB1016300E04163016101605DF8E3
:100CB000044B704712F0100F10D0C0F8B01012F0B3
:100CC000200F14BFC0F8D410C0F8D01012F0400F9D
:100CD00014BFC0F8C010C0F8C4107047C0F8B410FA
:100CE000704700BFC36C0164704700BFC06C7047A1
:100CF000806C704770B582B00D46430903F5001350
:100D000003F207735C0201F0F043B3F1005F47D0D8
:100D100009D8B3F1805F21D0B3F1C05F2FD0B3F118
:100D2000006F6FD109E0B3F1405F55D0B3F1605F60
:100D300052D0B3F1205F44D064E000F01F000126E0
:100D4000864020464FF000613246304B984715F000
:100D5000010F14BF66662666012054E000F01F00F4
:100D60000126864020464FF080513246274B984757
:100D700015F0010F14BF66662666012043E000F0FF
:100D80001F000126864020464FF0C05132461F4BBF
:100D9000984715F0010F14BF66662666012032E001
:100DA00000F01F000126864020464FF000513246D9
:100DB000164B984715F0010F14BF66662666012092
:100DC00021E000F01F030126204606FA03F12A461F
:100DD0000F4B9847304616E000F01F03012605F040
:100DE000605205EA06010091204606FA03F1B2F1CD
:100DF000605F14BF00220122C5F38003054CA047A9
:100E0000304600E0002002B070BD00BFC50B4000BE
:100E1000590C40008D0C400070B582B006460D465E
:100E2000144602F0F043B3F1005F38D009D8B3F1B3
:100E3000805F1CD0B3F1C05F25D0B3F1006F50D1FB
:100E400009E0B3F1405F3AD0B3F1605F37D0B3F15E
:100E5000205F30D045E04FF000612A46224B984792
:100E600014F0010F14BF7566356601203AE04FF0AB
:100E700080512A461C4B984714F0010F14BF756629
:100E8000356601202EE04FF0C0512A46164B984798
:100E900014F0010F14BF75663566012022E04FF093
:100EA00000512A46104B984714F0010F14BF756685
:100EB0003566012016E00D4B9847012012E004F042
:100EC000605204F00103009330462946B2F1605F9E
:100ED00014BF00220122C4F38003054CA047012067
:100EE00000E0002002B070BDC50B4000590C40006E
:100EF0008D0C40002DE9F84381468846124B9847F7
:100F000005464846114B9847054013D0104C04F154
:100F100060062368434508D16168294205D0E3682B
:100F200040469847636825EA0305B44202D010346E
:100F3000002DEED1074B1B6823B1074B1B680BB18B
:100F400048469847BDE8F883ED0C4000F10C40009E
:100F500028080020A008002024080020F8B50C4C28
:100F60002468062C11D815460A4F2201BE18B95024
:100F70007560B360069AF2600134054A1460294630
:100F80001A46054B98470020F8BD0120F8BD00BF68
:100F90002008002028080020B50C400008B50248B1
:100FA0000B21024B984708BD000E0E40F50E400085
:100FB00008B502480C21024B984708BD00100E40AE
:100FC000F50E400008B502480D21024B984708BDB8
:100FD00000120E40F50E4000184A136B23F0700308
:100FE00018431063936E13F0080F03D009E0013B20
:100FF00003D11EE04FF4006310498A6E12F0080F0F
:10100000F5D00E4A136B23F0030343F0020313637E
:10101000906E10F0080004D000207047013B03D10F
:1010200009E04FF4006305498A6E12F0080FF5D00D
:101030007047012070470120704700BF00040E4038
:1010400038B111490B6A114A1A40114B13430B6214
:1010500070470D4A136A23F45C1323F0030343F42F
:101060005C1343F00103090289B20B431362936ED0
:1010700013F0010FFBD0044A136A43F09B7343F44F
:1010800080331362704700BF00040E40FCFFC8FEAF
:1010900002003701024B986E00F48030704700BFA9
:1010A00000040E404FF00052014B9A62704700BF9F
:1010B00000040E40024B986E00F00200704700BF23
:1010C00000040E4022281ED81F280CD8114B9A6904
:1010D000012383401A40934217D0012383400D4AD5
:1010E0001361002070470B4BD3F8082120380123EF
:1010F00083401A4093420AD001238340054AC2F834
:101100000031002070470120704700207047002008
:10111000704700BF00040E40FEE700BF08B5204B3B
:10112000204A9A4213D9204B1D4A9A421FD2114697
:10113000043203339B1A23F003030433194A134484
:1011400052F8040B41F8040B9A42F9D10FE0144B0A
:10115000144A9A420BD2144B114A9A1A1348811816
:101160002AB151F8042943F8042D8142F9D100BF76
:101170000F4B104A9A420BD2131D0F4AD21A22F07B
:1011800003021A44043B002143F8041B9342FBD1A1
:101190000A4B0B4A9A600B4B98470B4B9847FEE75C
:1011A000000000200CA841004004002008A84100D5
:1011B000C008002040040020C308002000ED00E02B
:1011C000000040009D274000C91740003D4B1B6BAD
:1011D00003F00303032B5DD8DFE803F0020E2B2B93
:1011E000394B5B6913F0800F14BF4FF400424FF48A
:1011F000FA42364B1A604DE0324B1B6A13F0807F87
:1012000003D0334A314B1A6044E0324A2F4B1A6004
:101210002C4B1B6A03F07003102B02D0202B04D040
:1012200038E02D4A294B1A6034E0294A274B1A60CE
:1012300030E0244B1B6A13F0807F03D0244A234BF9
:101240001A6012E0234A214B1A601E4B1B6A03F0FE
:101250007003102B02D0202B04D006E01E4A1B4B3B
:101260001A6002E01A4A194B1A60164B1B6B03F006
:101270000303022B134A07BF936A926AD36AD26AA6
:101280001248C3F30A41036801FB0333D2B2B3FB34
:10129000F2F303600B4B1B6B03F07003702B07D151
:1012A0000A4A13680D49A1FB03135B0813607047DA
:1012B000044B1A6B0549C2F302120B68D3400B6052
:1012C000704700BF00040E4010140E4008000020BC
:1012D000001BB70000093D0000127A00ABAAAAAAC1
:1012E0001A4B984207D84FF08063194A136002F5F1
:1012F000007213607047174B984206D8164B144A79
:10130000136002F5007213607047144B984206D8C0
:10131000134B0F4A136002F5007213607047114BB4
:10132000984206D8104B0A4A136002F50072136007
:1013300070470E4B984294BF4FF004230C4B044A65
:10134000136002F500721360704700BFFF2C31017B
:10135000000A0E40FF59620200010004FF86930359
:1013600000020004FFB3C40400030004FFE0F5051D
:101370000005000408B50122024B1A600248034B25
:10138000984708BD98080020008003408D01400068
:1013900008B50222024B1A600248034B984708BD69
:1013A00098080020008003408D01400000000000EC
:1013B0002DE9F04D82B034480021344B984701901C
:1013C000019B334B1888334B98470446324B1868BF
:1013D0004FF07C51314B984701462046304B98479F
:1013E00010B13048304B9847294B1888294B984703
:1013F000294B19682D4B984728B10022244B1A809D
:101400002848294B98472A4D234B1868A84702467D
:101410000B461BA1D1E90001264CA047264FB84737
:101420000646DFF8BC804046244B98470090184C95
:101430002088184B98473146184B9847204B9847BF
:10144000A84700221F4B204EB04782468B461F4BB9
:101450001868A84702460B46504659461C4DA847F7
:10146000B8471C4B18601C4B9847014640461B4B25
:10147000984723880133238002B0BDE8F08D00BF78
:101480001F85EB51B81E1940000001406502400065
:10149000AC080020DD224000100000208523400021
:1014A000AD264000008003408D014000FD26400035
:1014B000FD1B4000F91E4000C9204000F50140001E
:1014C000B11840000000F63F411940000C00002018
:1014D000A51C40009C0800205D274000F901400049
:1014E00000C003400000000038B5214C2046214BCD
:1014F000984720460521204B9847204B1860204BE9
:101500001B68012B0BD100EB8000430064331D48A6
:10151000002147F6BC72B2FBF3F21B4B9847184B05
:101520001B68022B15D1154B1868184B9847184C9F
:1015300009A3D3E90023A04709A3D3E90023154D4C
:10154000A84709A3D3E90023A047134B9847134B9F
:10155000186038BDAFF300806666666666660A404E
:101560000000000000FEAF409A999999996393405A
:1015700000800340B10140009D014000A40800200C
:10158000980800200000014055024000B91B4000AF
:10159000A51C4000F91E4000C92040000C0000209E
:1015A00030B583B00C20114B9847114C20460821D0
:1015B0005922104B9847204608210A220E4B984783
:1015C0000E4B009320460C21082259230C4DA847AE
:1015D000204608210B4B98470B4B002283F80C2325
:1015E0004FF480521A6003B030BD00BFC5104000F8
:1015F00000100E40590C4000A90B4000751340002C
:101600005D0F4000E50C400000E100E030B583B024
:101610000D20134B9847134C20464FF4805159220C
:10162000114B984720464FF480510A220F4B9847A0
:101630000F4B009320460D214FF4805259230D4D3E
:10164000A84720464FF480510B4B98470B4B002284
:1016500083F80D234FF400521A6003B030BD00BF71
:10166000C510400000120E40590C4000A90B40006C
:10167000911340005D0F4000E50C400000E100E0E8
:1016800038B51D20144B9847144C20461449154A70
:101690004FF48023144DA847204601214FF44012F7
:1016A0000B46124DA847204600210A46104B98478A
:1016B000204605210F4B984720460F4B98474FF087
:1016C00000520E4B1A6020460D4B984720462021B1
:1016D0000C4B984738BD00BFC51040000080034048
:1016E000000E270700A86100290140006D0140009D
:1016F0005D01400095014000B501400000E100E0BF
:101700008D014000AD0140002DE9F0410A201E4B43
:1017100098471E4C204601214FF002321C4B98473F
:10172000204601211B4A1C4B9847204601211B4A99
:101730001B4B98472046012103221A4B98471A4D0C
:10174000F0272F604FF4A0766E600024AC606FF03D
:101750007F48C5F80C80154B98472846144B98478E
:101760000820144B98474046134B98472046214683
:101770003A463346114DA847114B9847204621461B
:10178000104B9847BDE8F081C510400000000E40A6
:10179000890B400004040A0A910B40000A0016005D
:1017A000990B4000A10B4000B0080020E503400069
:1017B0001D074000890340003D064000010A40002B
:1017C00009064000F906400000B583B0234B984756
:1017D000234B9847234B9847234B9847234B9847D5
:1017E000234B98471720234DA847234C2046002120
:1017F00044F20402214B9847204600212022204B2E
:1018000098472046002110221E4B98474FF40002B3
:101810001D4B1A60204600211C4B98471C4B00931F
:101820000020DB21EF2263231A4CA0471E20A8478B
:10183000194C2046194B984720460021184B9847D1
:1018400020460121174B984720460121164B984707
:1018500020464FF48571154B9847FEE76D02400016
:10186000D102400009174000A11540000D164000AC
:1018700081164000C51040000000014031024000C8
:10188000550240005D02400000E100E04D024000D2
:10189000DC284000C50A400000C00340C5014000EC
:1018A000CD014000FD01400015024000290240002A
:1018B000F8B51E49064600F065FD054600F028FF14
:1018C00000210446304600F0FBFE00B1013C2046FA
:1018D00000F004FD0146284600F04AFC4FF0884124
:1018E00000F050FD064600F039FFC0F30804204622
:1018F00000F0F0FC0146304600F03AFC0C4D064684
:1019000001464FF07E5000F033FC55F8241000F0F3
:1019100039FD0134074655F82410304600F032FDF9
:101920000146384600F026FCF8BD00BF83F9223E90
:10193000DC9F410081F0004102E000BF83F00043E2
:1019400030B54FEA41044FEA430594EA050F08BF5A
:1019500090EA020F1FBF54EA000C55EA020C7FEA1E
:10196000645C7FEA655C00F0E2804FEA5454D4EB9B
:101970005555B8BF6D420CDD2C4480EA020281EA65
:10198000030382EA000083EA010180EA020281EA9D
:101990000303362D88BF30BD11F0004F4FEA0131EF
:1019A0004FF4801C4CEA113102D0404261EB4101FE
:1019B00013F0004F4FEA03334CEA133302D0524284
:1019C00063EB430394EA050F00F0A780A4F1010440
:1019D000D5F1200E0DDB02FA0EFC22FA05F280187A
:1019E00041F1000103FA0EF2801843FA05F3594160
:1019F0000EE0A5F120050EF1200E012A03FA0EFCDF
:101A000028BF4CF0020C43FA05F3C01851EBE37108
:101A100001F0004507D54FF0000EDCF1000C7EEB25
:101A200000006EEB0101B1F5801F1BD3B1F5001F63
:101A30000CD349085FEA30004FEA3C0C04F1010482
:101A40004FEA445212F5800F80F09A80BCF1004FAB
:101A500008BF5FEA500C50F1000041EB045141EA2D
:101A6000050130BD5FEA4C0C404141EB010111F42E
:101A7000801FA4F10104E9D191F0000F04BF0146D9
:101A80000020B1FA81F308BF2033A3F10B03B3F1B7
:101A900020020CDA0C3208DD02F1140CC2F10C0247
:101AA00001FA0CF021FA02F10CE002F11402D8BFA5
:101AB000C2F1200C01FA02F120FA0CFCDCBF41EA71
:101AC0000C019040E41AA2BF01EB0451294330BD40
:101AD0006FEA04041F3C1CDA0C340EDC04F114041D
:101AE000C4F1200220FA04F001FA02F340EA0300F4
:101AF00021FA04F345EA030130BDC4F10C04C4F13A
:101B0000200220FA02F001FA04F340EA0300294619
:101B100030BD21FA04F0294630BD94F0000F83F463
:101B2000801306BF81F480110134013D4EE77FEA46
:101B3000645C18BF7FEA655C29D094EA050F08BF92
:101B400090EA020F05D054EA000C04BF1946104673
:101B500030BD91EA030F1EBF0021002030BD5FEAB7
:101B6000545C05D14000494128BF41F0004130BDDF
:101B700014F580043CBF01F5801130BD01F0004533
:101B800045F0FE4141F470014FF0000030BD7FEAA6
:101B9000645C1ABF194610467FEA655C1CBF0B46A1
:101BA000024650EA013406BF52EA033591EA030FB8
:101BB00041F4002130BD00BF90F0000F04BF0021B0
:101BC000704730B54FF4806404F132044FF00005E3
:101BD0004FF0000150E700BF90F0000F04BF00215C
:101BE000704730B54FF4806404F1320410F00045C2
:101BF00048BF40424FF000013EE700BF42004FEABD
:101C0000E2014FEA31014FEA02701FBF12F07F4339
:101C100093F07F4F81F06051704792F0000F14BF36
:101C200093F07F4F704730B54FF4607401F000457A
:101C300021F0004120E700BF50EA010208BF7047D1
:101C400030B54FF000050AE050EA010208BF7047C6
:101C500030B511F0004502D5404261EB41014FF42F
:101C6000806404F132045FEA915C3FF4DCAE4FF033
:101C700003025FEADC0C18BF03325FEADC0C18BF1A
:101C8000033202EBDC02C2F1200300FA03FC20FA6B
:101C900002F001FA03FE40EA0E0021FA02F11444B8
:101CA000C1E600BF70B54FF0FF0C4CF4E06C1CEACD
:101CB00011541DBF1CEA135594EA0C0F95EA0C0F42
:101CC00000F0DEF82C4481EA030621EA4C5123EAB5
:101CD0004C5350EA013518BF52EA033541F48011E4
:101CE00043F4801338D0A0FB02CE4FF00005E1FB97
:101CF00002E506F00042E0FB03E54FF00006E1FBE1
:101D000003569CF0000F18BF4EF0010EA4F1FF0423
:101D1000B6F5007F64F5407404D25FEA4E0E6D4163
:101D200046EB060642EAC62141EA55514FEAC52074
:101D300040EA5E504FEACE2EB4F1FD0C88BFBCF5F0
:101D4000E06F1ED8BEF1004F08BF5FEA500E50F1A1
:101D5000000041EB045170BD06F0004646EA010167
:101D600040EA020081EA0301B4EB5C04C2BFD4EB99
:101D70000C0541EA045170BD41F480114FF0000E92
:101D8000013C00F3AB8014F1360FDEBF002001F000
:101D9000004170BDC4F10004203C35DA0C341BDC7A
:101DA00004F11404C4F1200500FA05F320FA04F04C
:101DB00001FA05F240EA020001F0004221F0004180
:101DC00010EBD37021FA04F642EB06015EEA430EF3
:101DD00008BF20EAD37070BDC4F10C04C4F1200523
:101DE00000FA04F320FA05F001FA04F240EA0200D6
:101DF00001F0004110EBD37041F100015EEA430EA7
:101E000008BF20EAD37070BDC4F1200500FA05F2C6
:101E10004EEA020E20FA04F301FA05F243EA020345
:101E200021FA04F001F0004121FA04F220EA020054
:101E300000EBD3705EEA430E08BF20EAD37070BD9A
:101E400094F0000F0FD101F00046400041EB01017A
:101E500011F4801F08BF013CF7D041EA060195F05C
:101E6000000F18BF704703F00046520043EB030316
:101E700013F4801F08BF013DF7D043EA0603704703
:101E800094EA0C0F0CEA135518BF95EA0C0F0CD00E
:101E900050EA410618BF52EA4306D1D181EA030154
:101EA00001F000414FF0000070BD50EA410606BF4E
:101EB0001046194652EA430619D094EA0C0F02D193
:101EC00050EA013613D195EA0C0F05D152EA0336D8
:101ED0001CBF104619460AD181EA030101F00041F6
:101EE00041F0FE4141F470014FF0000070BD41F03F
:101EF000FE4141F4780170BD70B54FF0FF0C4CF419
:101F0000E06C1CEA11541DBF1CEA135594EA0C0F37
:101F100095EA0C0F00F0A7F8A4EB050481EA030E84
:101F200052EA03354FEA013100F088804FEA03336B
:101F30004FF0805545EA131343EA12634FEA022239
:101F400045EA111545EA10654FEA00260EF00041FA
:101F50009D4208BF964244F1FD0404F5407402D24C
:101F60005B084FEA3202B61A65EB03055B084FEADD
:101F700032024FF480104FF4002CB6EB020E75EBDA
:101F8000030E22BFB61A754640EA0C005B084FEA02
:101F90003202B6EB020E75EB030E22BFB61A75467F
:101FA00040EA5C005B084FEA3202B6EB020E75EBCA
:101FB000030E22BFB61A754640EA9C005B084FEA42
:101FC0003202B6EB020E75EB030E22BFB61A75464F
:101FD00040EADC0055EA060E18D04FEA051545EA3E
:101FE00016754FEA06164FEAC30343EA52734FEAE7
:101FF000C2025FEA1C1CC0D111F4801F0BD141EA60
:1020000000014FF000004FF0004CB6E711F4801FC4
:1020100004BF01430020B4F1FD0C88BFBCF5E06FA4
:102020003FF6AFAEB5EB030C04BFB6EB020C5FEAB4
:10203000500C50F1000041EB045170BD0EF0004E09
:102040004EEA113114EB5C04C2BFD4EB0C0541EA3B
:10205000045170BD41F480114FF0000E013C90E638
:1020600045EA060E8DE60CEA135594EA0C0F08BFFC
:1020700095EA0C0F3FF43BAF94EA0C0F0AD150EAFB
:1020800001347FF434AF95EA0C0F7FF425AF10468E
:1020900019462CE795EA0C0F06D152EA03353FF4B6
:1020A000FDAE1046194622E750EA410618BF52EA33
:1020B00043067FF4C5AE50EA41047FF40DAF52EA07
:1020C00043057FF4EBAE12E74FEA4102B2F1E04381
:1020D00024BFB3F5001CDCF1FE5C0DD901F0004C0F
:1020E0004FEAC0024CEA5070B2F1004F40EB83005F
:1020F00008BF20F00100704711F0804F21D113F18B
:102100003872BCBF01F00040704741F480114FEAC3
:102110005252C2F11802C2F1200C10FA0CF320FA4C
:1021200002F018BF40F001004FEAC1234FEAD32369
:1021300003FA0CFC40EA0C0023FA02F34FEA4303D3
:10214000CCE77FEA625307D150EA01331EBF4FF05C
:10215000FE4040F44000704701F0004040F0FE4077
:1021600040F40000704700BF80F0004002E000BF74
:1021700081F0004142001FBF5FEA410392EA030F72
:102180007FEA226C7FEA236C6AD04FEA1262D2EBBC
:102190001363C1BFD218414048404140B8BF5B42C1
:1021A000192B88BF704710F0004F40F4000020F05A
:1021B0007F4018BF404211F0004F41F4000121F070
:1021C0007F4118BF494292EA030F3FD0A2F10102BA
:1021D00041FA03FC10EB0C00C3F1200301FA03F1F8
:1021E00000F0004302D5494260EB4000B0F5000F1B
:1021F00013D3B0F1807F06D340084FEA310102F1DA
:102200000102FE2A51D2B1F1004F40EBC25008BF8B
:1022100020F0010040EA03007047490040EB000055
:1022200010F4000FA2F10102EDD1B0FA80FCACF184
:10223000080CB2EB0C0200FA0CF0AABF00EBC25083
:1022400052421843BCBFD0401843704792F0000F71
:1022500081F4000106BF80F400000132013BB5E7C4
:102260004FEA41037FEA226C18BF7FEA236C21D03A
:1022700092EA030F04D092F0000F08BF084670479F
:1022800090EA010F1CBF0020704712F07F4F04D16D
:10229000400028BF40F00040704712F100723CBF80
:1022A00000F50000704700F0004343F0FE4040F4AA
:1022B000000070477FEA226216BF08467FEA236368
:1022C0000146420206BF5FEA412390EA010F40F453
:1022D000800070474FF0000304E000BF10F000439F
:1022E00048BF40425FEA000C08BF704743F0964386
:1022F00001464FF000001CE050EA010208BF7047A1
:102300004FF000030AE000BF50EA010208BF704727
:1023100011F0004302D5404261EB41015FEA010C3C
:1023200002BF84460146002043F0B64308BFA3F134
:102330008053A3F50003BCFA8CF2083AA3EBC25316
:1023400010DB01FA02FC634400FA02FCC2F1200235
:10235000BCF1004F20FA02F243EB020008BF20F06C
:102360000100704702F1200201FA02FCC2F12002D2
:1023700050EA4C0021FA02F243EB020008BF20EAC7
:10238000DC7070474FF0FF0C1CEAD0521EBF1CEAF5
:10239000D15392EA0C0F93EA0C0F6FD01A4480EAE3
:1023A000010C400218BF5FEA41211ED04FF00063CC
:1023B00043EA501043EA5111A0FB01310CF00040F8
:1023C000B1F5000F3EBF490041EAD3715B0040EA1E
:1023D000010062F17F02FD2A1DD8B3F1004F40EBEE
:1023E000C25008BF20F00100704790F0000F0CF0C1
:1023F000004C08BF49024CEA502040EA51207F3A85
:10240000C2BFD2F1FF0340EAC250704740F400005F
:102410004FF00003013A5DDC12F1190FDCBF00F050
:1024200000407047C2F10002410021FA02F1C2F1FE
:10243000200200FA02FC5FEA310040F1000053EA9A
:102440004C0308BF20EADC70704792F0000F00F0E8
:10245000004C02BF400010F4000F013AF9D040EAEE
:102460000C0093F0000F01F0004C02BF490011F482
:10247000000F013BF9D041EA0C018FE70CEAD15380
:1024800092EA0C0F18BF93EA0C0F0AD030F0004C00
:1024900018BF31F0004CD8D180EA010000F00040B4
:1024A000704790F0000F17BF90F0004F084691F072
:1024B000000F91F0004F14D092EA0C0F01D14202AC
:1024C0000FD193EA0C0F03D14B0218BF084608D175
:1024D00080EA010000F0004040F0FE4040F40000BF
:1024E000704740F0FE4040F4400070474FF0FF0C52
:1024F0001CEAD0521EBF1CEAD15392EA0C0F93EA99
:102500000C0F69D0A2EB030280EA010C49024FEAEA
:10251000402037D04FF0805343EA111143EA1013A3
:102520000CF000408B4238BF5B0042F17D024FF45B
:10253000000C8B4224BF5B1A40EA0C00B3EB510F36
:1025400024BFA3EB510340EA5C00B3EB910F24BF1F
:10255000A3EB910340EA9C00B3EBD10F24BFA3EBA4
:10256000D10340EADC001B0118BF5FEA1C1CE0D16C
:10257000FD2A3FF650AF8B4240EBC25008BF20F01F
:10258000010070470CF0004C4CEA50207F32C2BF73
:10259000D2F1FF0340EAC250704740F400004FF010
:1025A0000003013A37E792F0000F00F0004C02BF41
:1025B000400010F4000F013AF9D040EA0C0093F00B
:1025C000000F01F0004C02BF490011F4000F013B65
:1025D000F9D041EA0C0195E70CEAD15392EA0C0FCD
:1025E00008D142027FF47DAF93EA0C0F7FF470AF05
:1025F000084676E793EA0C0F04D14B023FF44CAF48
:1026000008466EE730F0004C18BF31F0004CCAD1DC
:1026100030F000427FF45CAF31F000437FF43CAF18
:102620005FE700BF4FF0FF3C06E000BF4FF0010C3A
:1026300002E000BF4FF0010C4DF804CD4FEA40021C
:102640004FEA41037FEA226C18BF7FEA236C11D066
:1026500001B052EA530C18BF90EA010F58BFB2EB19
:10266000030088BFC81738BF6FEAE17018BF40F099
:10267000010070477FEA226C02D15FEA402C05D14D
:102680007FEA236CE4D15FEA412CE1D05DF8040BD2
:10269000704700BF844608466146FFE70FB5FFF765
:1026A000C9FF002848BF10F1000F0FBD4DF808ED1D
:1026B000FFF7F4FF0CBF012000205DF808FB00BF0E
:1026C0004DF808EDFFF7EAFF34BF012000205DF868
:1026D00008FB00BF4DF808EDFFF7E0FF94BF0120B5
:1026E00000205DF808FB00BF4DF808EDFFF7D2FFB2
:1026F00094BF012000205DF808FB00BF4DF808EDF5
:10270000FFF7C8FF34BF012000205DF808FB00BFC1
:102710004FEA4002B2F1FE4F0FD34FF09E03B3EBEE
:1027200012620DD94FEA002343F0004310F0004F2E
:1027300023FA02F018BF404270474FF00000704784
:1027400012F1610F01D1420205D110F0004008BF23
:102750006FF0004070474FF00000704742000ED20B
:10276000B2F1FE4F0BD34FF09E03B3EB126209D4CC
:102770004FEA002343F0004323FA02F070474FF082
:102780000000704712F1610F01D1420202D14FF0F7
:10279000FF3070474FF00000704700BF70B50F4E1C
:1027A0000F4D761BB61018BF002405D0013455F824
:1027B000043B9847A642F9D10A4E0B4D761B18F000
:1027C00013F8B61018BF002406D0013455F8043BA6
:1027D0009847A642F9D170BD70BD00BFF4A7410073
:1027E000F4A74100FCA74100F4A74100024B13B13C
:1027F000024800F005B87047000000000D284000B6
:10280000014600200246034600F016B838B5084BD2
:10281000084DED1AAC1018BFED1805D0013C55F865
:10282000043D9847002CF9D1BDE8384017F0E6BFC9
:1028300008A841000CA841002DE9F047254C256867
:10284000D5F848410646884692469946CCB360681A
:102850001F2818DC431C7EB104EB80050121C5F85C
:1028600088A0D4F8887101FA00F21743022EC4F848
:102870008871C5F808911ED00230636044F820804A
:102880000020BDE8F087144B03B34FF4C870AFF3DA
:1028900000800446D0B1D5F84831002780E8880090
:1028A000C5F8484138460123C4F88871C4F88C71D2
:1028B000002EE1D0D0E7D4F88C110A43C4F88C2163
:1028C000DAE705F5A674C5F84841C0E74FF0FF30D8
:1028D000BDE8F087E4A7410000000000FFFFFF0013
:1028E000FFFFFF00FFFFFF00FFFFFF00FFFFFF00F4
:1028F000FFFFFF00FFFFFF00FFFFFF00FFFFFF00E4
:10290000FFFFFF00FFFFFF00FFFFFF00FFFFFF00D3
:10291000FFFFFF00FFFFFF00FFFFFF00FFFFFF00C3
:1046D000FFFFFF00FFFFFF00FFFFFF008745000017
:1046E000874500008745000087450000874500009A
:1046F000874500008745000087450000874500008A
:104700008745000087450000874500008745000079
:104710008745000087450000874500008745000069
:104720008745000087450000874500008745000059
:104730008745000087450000874500008745000049
:104740008745000087450000874500008745000039
:104750008745000087450000874500008745000029
:1047600087450000874500008745000092571900E3
:10477000A4723E00AB7D4E00B0855900B78E660036
:10478000BE997500B9936C00B58B6100AF8355007D
:10479000A67745009B652C008A4A070087450000E4
:1047A00087450000874500008745000087450000D9
:1047B00087450000874500008745000087450000C9
:1047C00087450000874500008745000087450000B9
:1047D00087450000874500008745000087450000A9
:1047E0008745000087450000874500008745000099
:1047F0008745000087450000874500008745000089
:104800008745000087450000874500008745000078
:104810008745000087450000874500008745000068
:104820008745000087450000C5A58300FFFFFF0006
:10483000FFFFFF00FFFFFF00FFFFFF00FFFFFF0084
:10484000FFFFFF00FFFFFF00FFFFFF00FFFFFF0074
:10485000FFFFFF00FFFFFF00FFFFFF00FFFFFF0064
:10486000FFFFFF00FFFFFF00FFFFFF00FFFFFF0054
:10487000FFFFFF00FFFFFF00AC7F4F0087450000F8
:1048800087450000874500008745000087450000F8
:1048900087450000874500008745000087450000E8
:1048A00087450000874500008745000087450000D8
:1048B00087450000874500008745000087450000C8
:104B10008745000087450000975D2200B68D630041
:104B2000D3BAA100E6D7CA00F8F5F100FFFFFF00F5
:104B3000FFFFFF00FFFFFF00FFFFFF00FFFFFF0081
:104B4000FFFFFF00FFFFFF00FFFFFF00FFFFFF0071
:104B5000FFFFFF00FFFFFF00FEFDFC00EFE6DD00B2
:104B6000DCCAB600C4A38200A67341008A4A0800CA
:104B70008745000087450000874500008745000005
:104B800087450000874500008745000087450000F5
:104B900087450000874500008745000087450000E5
:104BA00087450000874500008745000087450000D5
:104BB00087450000874500008745000087450000C5
:104BC00087450000874500008745000087450000B5
:104BD00087450000874500008745000087450000A5
:104BE0008745000087450000C5A58300FFFFFF0043
:104BF000FFFFFF00FFFFFF00FFFFFF00FFFFFF00C1
:104C0000FFFFFF00FFFFFF00FFFFFF00FFFFFF00B0
:104C1000FFFFFF00FFFFFF00FFFFFF00FFFFFF00A0
:104C2000FFFFFF00FFFFFF00FFFFFF00FFFFFF0090
:104C3000FFFFFF00FFFFFF00AC7F4F008745000034
:104C40008745000087450000874500008745000034
:104C50008745000087450000874500008745000024
:104C60008745000087450000874500008745000014
:104C70008745000087450000874500008745000004
:104EC000874500008745000087460200A673410021
:104ED000CFB69B00F0E8E000FFFFFF00FFFFFF0000
:104EE000FFFFFF00FFFFFF00FFFFFF00FFFFFF00CE
:104EF000FFFFFF00FFFFFF00FFFFFF00FFFFFF00BE
:104F0000FFFFFF00FFFFFF00FFFFFF00FFFFFF00AD
:104F1000FFFFFF00FFFFFF00FFFFFF00FFFFFF009D
:104F2000FFFFFF00FFFFFF00FFFFFF00FBF9F7009F
:104F3000DFCFBD00B9956D00905314008745000088
:104F40008745000087450000874500008745000031
:104F50008745000087450000874500008745000021
:104F60008745000087450000874500008745000011
:104F70008745000087450000874500008745000001
:104F800087450000874500008745000087450000F1
:104F900087450000874500008745000087450000E1
:104FA0008745000087450000C5A58300FFFFFF007F
:104FB000FFFFFF00FFFFFF00FFFFFF00FFFFFF00FD
:104FC000FFFFFF00FFFFFF00FFFFFF00FFFFFF00ED
:104FD000FFFFFF00FFFFFF00FFFFFF00FFFFFF00DD
:104FE000FFFFFF00FFFFFF00FFFFFF00FFFFFF00CD
:104FF000FFFFFF00FFFFFF00AC7F4F008745000071
:105000008745000087450000874500008745000070
:105010008745000087450000874500008745000060
:105020008745000087450000874500008745000050
:105030008745000087450000874500008745000040
:10528000965F2300C5A48400F1E9E100FFFFFF0061
:10529000FFFFFF00FFFFFF00FFFFFF00FFFFFF001A
:1052A000FFFFFF00FFFFFF00FFFFFF00FFFFFF000A
:1052B000FFFFFF00FFFFFF00FFFFFF00FFFFFF00FA
:1052C000FFFFFF00FFFFFF00FFFFFF00FFFFFF00EA
:1052D000FFFFFF00FFFFFF00FFFFFF00FFFFFF00DA
:1052E000FFFFFF00FFFFFF00FFFFFF00FFFFFF00CA
:1052F000FFFFFF00FFFFFF00FDFBFA00D9C6B10072
:10530000AE805200884703008745000087450000B3
:10531000874500008745000087450000874500005D
:10532000874500008745000087450000874500004D
:10533000874500008745000087450000874500003D
:10534000874500008745000087450000874500002D
:10535000874500008745000087450000874500001D
:105360008745000087450000C5A58300FFFFFF00BB
:10537000FFFFFF00FFFFFF00FFFFFF00FFFFFF0039
:10538000FFFFFF00FFFFFF00FFFFFF00FFFFFF0029
:10539000FFFFFF00FFFFFF00FFFFFF00FFFFFF0019
:1053A000FFFFFF00FFFFFF00FFFFFF00FFFFFF0009
:1053B000FFFFFF00FFFFFF00AC7F4F0087450000AD
:1053C00087450000874500008745000087450000AD
:1053D000874500008745000087450000874500009D
:1053E000874500008745000087450000874500008D
:1053F000874500008745000087450000874500007D
:1056300087450000874500009B652C00D3BAA10078
:10564000FDFCFB00FFFFFF00FFFFFF00FFFFFF006F
:10565000FFFFFF00FFFFFF00FFFFFF00FFFFFF0056
:10566000FFFFFF00FFFFFF00FFFFFF00FFFFFF0046
:10567000FFFFFF00FFFFFF00FFFFFF00FFFFFF0036
:10568000FFFFFF00FFFFFF00FFFFFF00FFFFFF0026
:10569000FFFFFF00FFFFFF00FFFFFF00FFFFFF0016
:1056A000FFFFFF00FFFFFF00FFFFFF00FFFFFF0006
:1056B000FFFFFF00FFFFFF00FFFFFF00FFFFFF00F6
:1056C000FFFFFF00EEE7DE00BA956E008A4A080091
:1056D000874500008745000087450000874500009A
:1056E000874500008745000087450000874500008A
:1056F000874500008745000087450000874500007A
:105700008745000087450000874500008745000069
:105710008745000087450000874500008745000059
:105720008745000087450000C5A58300FFFFFF00F7
:10573000FFFFFF00FFFFFF00FFFFFF00FFFFFF0075
:10574000FFFFFF00FFFFFF00FFFFFF00FFFFFF0065
:10575000FFFFFF00FFFFFF00FFFFFF00FFFFFF0055
:10576000FFFFFF00FFFFFF00FFFFFF00FFFFFF0045
:10577000FFFFFF00FFFFFF00AC7F4F0087450000E9
:1057800087450000874500008745000087450000E9
:1057900087450000874500008745000087450000D9
:1057A00087450000874500008745000087450000C9
:1057B00087450000874500008745000087450000B9
:1059F00099622800DAC5B000FFFEFE00FFFFFF003D
:105A0000FFFFFF00FFFFFF00FFFFFF00FFFFFF00A2
:105A1000FFFFFF00FFFFFF00FFFFFF00FFFFFF0092
:105A2000FFFFFF00FFFFFF00FFFFFF00FFFFFF0082
:105A3000FFFFFF00FFFFFF00FFFFFF00FFFFFF0072
:105A4000FFFFFF00FFFFFF00FFFFFF00FFFFFF0062
:105A5000FFFFFF00FFFFFF00FFFFFF00FFFFFF0052
:105A6000FFFFFF00FFFFFF00FFFFFF00FFFFFF0042
:105A7000FFFFFF00FFFFFF00FFFFFF00FFFFFF0032
:105A8000FFFFFF00FFFFFF00FFFFFF00F1E9E20063
:105A9000B6906700874602008745000087450000F2
:105AA00087450000874500008745000087450000C6
:105AB00087450000874500008745000087450000B6
:105AC00087450000874500008745000087450000A6
:105AD0008745000087450000874500008745000096
:105AE0008745000087450000C5A58300FFFFFF0034
:105AF000FFFFFF00FFFFFF00FFFFFF00FFFFFF00B2
:105B0000FFFFFF00FFFFFF00FFFFFF00FFFFFF00A1
:105B1000FFFFFF00FFFFFF00FFFFFF00FFFFFF0091
:105B2000FFFFFF00FFFFFF00FFFFFF00FFFFFF0081
:105B3000FFFFFF00FFFFFF00AC7F4F008745000025
:105B40008745000087450000874500008745000025
:105B50008745000087450000874500008745000015
:105B60008745000087450000874500008745000005
:105B700087450000874500008745000087450000F5
:105DA00087450000874500008B4B0900C2A27F0099
:105DB000FCFAF800FFFFFF00FFFFFF00FFFFFF00FE
:105DC000FFFFFF00FFFFFF00FFFFFF00FFFFFF00DF
:105DD000FFFFFF00FFFFFF00FFFFFF00FFFFFF00CF
:105DE000FFFFFF00FFFFFF00FFFFFF00FFFFFF00BF
:105DF000FFFFFF00FFFFFF00FFFFFF00FFFFFF00AF
:105E0000FFFFFF00FFFFFF00FFFFFF00FFFFFF009E
:105E1000FFFFFF00FFFFFF00FFFFFF00FFFFFF008E
:105E2000FFFFFF00FFFFFF00FFFFFF00FFFFFF007E
:105E3000FFFFFF00FFFFFF00FFFFFF00FFFFFF006E
:105E4000FFFFFF00FFFFFF00FFFFFF00FFFFFF005E
:105E5000FFFFFF00E7DBCE00A16D380087450000A3
:105E60008745000087450000874500008745000002
:105E700087450000874500008745000087450000F2
:105E800087450000874500008745000087450000E2
:105E900087450000874500008745000087450000D2
:105EA0008745000087450000C5A58300FFFFFF0070
:105EB000FFFFFF00FFFFFF00FFFFFF00FFFFFF00EE
:105EC000FFFFFF00FFFFFF00FFFFFF00FFFFFF00DE
:105ED000FFFFFF00FFFFFF00FFFFFF00FFFFFF00CE
:105EE000FFFFFF00FFFFFF00FFFFFF00FFFFFF00BE
:105EF000FFFFFF00FFFFFF00AC7F4F008745000062
:105F00008745000087450000874500008745000061
:105F10008745000087450000874500008745000051
:105F20008745000087450000874500008745000041
:105F30008745000087450000874500008745000031
:1061600087450000A87A4800F0E8E000FFFFFF0044
:10617000FFFFFF00FFFFFF00FFFFFF00FFFFFF002B
:10618000FFFFFF00FFFFFF00FFFFFF00FFFFFF001B
:10619000FFFFFF00FFFFFF00FFFFFF00FFFFFF000B
:1061A000FFFFFF00FFFFFF00FFFFFF00FFFFFF00FB
:1061B000FFFFFF00FFFFFF00FFFFFF00FFFFFF00EB
:1061C000FFFFFF00FFFFFF00FFFFFF00FFFFFF00DB
:1061D000FFFFFF00FFFFFF00FFFFFF00FFFFFF00CB
:1061E000FFFFFF00FFFFFF00FFFFFF00FFFFFF00BB
:1061F000FFFFFF00FFFFFF00FFFFFF00FFFFFF00AB
:10620000FFFFFF00FFFFFF00FFFFFF00FFFFFF009A
:10621000FFFFFF00FFFFFF00FEFEFD00CEB2960075
:106220008C4D0B0087450000874500008745000026
:10623000874500008745000087450000874500002E
:10624000874500008745000087450000874500001E
:10625000874500008745000087450000874500000E
:106260008745000087450000C5A58300FFFFFF00AC
:10627000FFFFFF00FFFFFF00FFFFFF00FFFFFF002A
:10628000FFFFFF00FFFFFF00FFFFFF00FFFFFF001A
:10629000FFFFFF00FFFFFF00FFFFFF00FFFFFF000A
:1062A000FFFFFF00FFFFFF00FFFFFF00FFFFFF00FA
:1062B000FFFFFF00FFFFFF00AC7F4F00874500009E
:1062C000874500008745000087450000874500009E
:1062D000874500008745000087450000874500008E
:1062E000874500008745000087450000874500007E
:1062F000874500008745000087450000874500006E
:106510008745000087450000874500008847040044
:10652000C2A27F00FEFEFD00FFFFFF00FFFFFF0095
:10653000FFFFFF00FFFFFF00FFFFFF00FFFFFF0067
:10654000FFFFFF00FFFFFF00FFFFFF00FFFFFF0057
:10655000FFFFFF00FFFFFF00FFFFFF00FFFFFF0047
:10656000FFFFFF00FFFFFF00FFFFFF00FFFFFF0037
:10657000FFFFFF00FFFFFF00FFFFFF00FFFFFF0027
:10658000FFFFFF00FFFFFF00FFFFFF00FFFFFF0017
:10659000FFFFFF00FFFFFF00FFFFFF00FFFFFF0007
:1065A000FFFFFF00FFFFFF00FFFFFF00FFFFFF00F7
:1065B000FFFFFF00FFFFFF00FFFFFF00FFFFFF00E7
:1065C000FFFFFF00FFFFFF00FFFFFF00FFFFFF00D7
:1065D000FFFFFF00FFFFFF00FFFFFF00FFFFFF00C7
:1065E000ECE1D7009C672E0087450000874500003E
:1065F000874500008745000087450000874500006B
:10660000874500008745000087450000874500005A
:10661000874500008745000087450000874500004A
:106620008745000087450000C5A58300FFFFFF00E8
:10663000FFFFFF00FFFFFF00FFFFFF00FFFFFF0066
:10664000FFFFFF00FFFFFF00FFFFFF00FFFFFF0056
:10665000FFFFFF00FFFFFF00FFFFFF00FFFFFF0046
:10666000FFFFFF00FFFFFF00FFFFFF00FFFFFF0036
:10667000FFFFFF00FFFFFF00AC7F4F0087450000DA
:1066800087450000874500008745000087450000DA
:1066900087450000874500008745000087450000CA
:1066A00087450000874500008745000087450000BA
:1066B00087450000874500008745000087450000AA
:1068D0008745000087450000955A1E00E3D4C60096
:1068E000FFFFFF00FFFFFF00FFFFFF00FFFFFF00B4
:1068F000FFFFFF00FFFFFF00FFFFFF00FFFFFF00A4
:10690000FFFFFF00FFFFFF00FFFFFF00FFFFFF0093
:10691000FFFFFF00FFFFFF00FFFFFF00FFFFFF0083
:10692000FFFFFF00FFFFFF00FFFFFF00FFFFFF0073
:10693000FFFFFF00FFFFFF00FFFFFF00FFFFFF0063
:10694000FFFFFF00FFFFFF00FFFFFF00FFFFFF0053
:10695000FFFFFF00FFFFFF00FFFFFF00FFFFFF0043
:10696000FFFFFF00FFFFFF00FFFFFF00FFFFFF0033
:10697000FFFFFF00FFFFFF00FFFFFF00FFFFFF0023
:10698000FFFFFF00FFFFFF00FFFFFF00FFFFFF0013
:10699000FFFFFF00FFFFFF00FFFFFF00FFFFFF0003
:1069A000FFFFFF00FBF8F600B68D6300874500008F
:1069B00087450000874500008745000087450000A7
:1069C0008745000087450000874500008745000097
:1069D0008745000087450000874500008745000087
:1069E0008745000087450000C5A58300FFFFFF0025
:1069F000FFFFFF00FFFFFF00FFFFFF00FFFFFF00A3
:106A0000FFFFFF00FFFFFF00FFFFFF00FFFFFF0092
:106A1000FFFFFF00FFFFFF00FFFFFF00FFFFFF0082
:106A2000FFFFFF00FFFFFF00FFFFFF00FFFFFF0072
:106A3000FFFFFF00FFFFFF00AC7F4F008745000016
:106A40008745000087450000874500008745000016
:106A50008745000087450000874500008745000006
:106A600087450000874500008745000087450000F6
:106A700087450000874500008745000087450000E6
:106C9000874500009B652C00F1EAE400FFFFFF0040
:106CA000FFFFFF00FFFFFF00FFFFFF00FFFFFF00F0
:106CB000FFFFFF00FFFFFF00FFFFFF00FFFFFF00E0
:106CC000FFFFFF00FFFFFF00FFFFFF00FFFFFF00D0
:106CD000FFFFFF00FFFFFF00FFFFFF00FFFFFF00C0
:106CE000FFFFFF00FFFFFF00FFFFFF00FFFFFF00B0
:106CF000FFFFFF00FFFFFF00FFFFFF00FFFFFF00A0
:106D0000FFFFFF00FFFFFF00FFFFFF00FFFFFF008F
:106D1000FFFFFF00FFFFFF00FFFFFF00FFFFFF007F
:106D2000FFFFFF00FFFFFF00FFFFFF00FFFFFF006F
:106D3000FFFFFF00FFFFFF00FFFFFF00FFFFFF005F
:106D4000FFFFFF00FFFFFF00FFFFFF00FFFFFF004F
:106D5000FFFFFF00FFFFFF00FFFFFF00FFFFFF003F
:106D6000FFFFFF00FFFFFF00FFFFFF00CBAE900023
:106D700087460200874500008745000087450000E0
:106D800087450000874500008745000087450000D3
:106D900087450000874500008745000087450000C3
:106DA0008745000087450000C5A58300FFFFFF0061
:106DB000FFFFFF00FFFFFF00FFFFFF00FFFFFF00DF
:106DC000FFFFFF00FFFFFF00FFFFFF00FFFFFF00CF
:106DD000FFFFFF00FFFFFF00FFFFFF00FFFFFF00BF
:106DE000FFFFFF00FFFFFF00FFFFFF00FFFFFF00AF
:106DF000FFFFFF00FFFFFF00AC7F4F008745000053
:106E00008745000087450000874500008745000052
:106E10008745000087450000874500008745000042
:106E20008745000087450000874500008745000032
:106E30008745000087450000874500008745000022
:10705000A5734000F8F4F000FFFFFF00FFFFFF0002
:10706000FFFFFF00FFFFFF00FFFFFF00FFFFFF002C
:10707000FFFFFF00FFFFFF00FFFFFF00FFFFFF001C
:10708000FFFFFF00FFFFFF00FFFFFF00FFFFFF000C
:10709000FFFFFF00FFFFFF00FFFFFF00FFFFFF00FC
:1070A000FFFFFF00FFFFFF00FFFFFF00FFFFFF00EC
:1070B000FFFFFF00FFFFFF00FFFFFF00FFFFFF00DC
:1070C000FFFFFF00FFFFFF00FFFFFF00FFFFFF00CC
:1070D000FFFFFF00FFFFFF00FFFFFF00FFFFFF00BC
:1070E000FFFFFF00FFFFFF00FFFFFF00FFFFFF00AC
:1070F000FFFFFF00FFFFFF00FFFFFF00FFFFFF009C
:10710000FFFFFF00FFFFFF00FFFFFF00FFFFFF008B
:10711000FFFFFF00FFFFFF00FFFFFF00FFFFFF007B
:10712000FFFFFF00FFFFFF00FFFFFF00FFFFFF006B
:10713000D4BCA400894805008745000087450000AD
:10714000874500008745000087450000874500000F
:1071500087450000874500008745000087450000FF
:107160008745000087450000C5A58300FFFFFF009D
:10717000FFFFFF00FFFFFF00FFFFFF00FFFFFF001B
:10718000FFFFFF00FFFFFF00FFFFFF00FFFFFF000B
:10719000FFFFFF00FFFFFF00FFFFFF00FFFFFF00FB
:1071A000FFFFFF00FFFFFF00FFFFFF00FFFFFF00EB
:1071B000FFFFFF00FFFFFF00DCCAB600CDB0940068
:1071C000CDB09400CDB09400CDB09400CDB094007B
:1071D000CDB09400CDB09400CDB09400CDB094006B
:1071E000CDB09400CDB09400CDB09400CDB094005B
:1071F000CDB09400CDB09400CDB09400CDB094004B
:1073D000CDB09400CDB09400CDB0940087450000AE
:1073E000874500008745000087450000874500006D
:1073F000874500008745000087450000874500005D
:10740000874500008745000087450000AA7B4C00A7
:10741000DCCAB600DFCDBB00DFCDBB00DFCDBB00DB
:10742000DFCDBB00DFCDBB00DFCDBB00DFCDBB00C0
:10743000DFCDBB00DFCDBB00DFCDBB00DFCDBB00B0
:10744000DFCDBB00DFCDBB00DFCDBB00DFCDBB00A0
:10745000DFCDBB00DFCDBB00DFCDBB00DFCDBB0090
:10746000DFCDBB00DFCDBB00DFCDBB00DFCDBB0080
:10747000DFCDBB00DFCDBB00DFCDBB00DFCDBB0070
:10748000DFCDBB00DFCDBB00DFCDBB00DFCDBB0060
:10749000DFCDBB00DFCDBB00DFCDBB00DFCDBB0050
:1074A000DFCDBB00DFCDBB00DFCDBB00DFCDBB0040
:1074B000DFCDBB00DFCDBB00DFCDBB00DFCDBB0030
:1074C000DFCDBB00DFCDBB00DFCDBB00DFCDBB0020
:1074D000DFCDBB00DFCDBB00DFCDBB00DFCDBB0010
:1074E000DFCDBB00DFCDBB00DFCDBB00DFCDBB0000
:1074F000DFCDBB00CEB398008A4A08008745000064
:10750000874500008745000087450000874500004B
:10751000874500008745000087450000874500003B
:107520008745000087450000C5A58300FFFFFF00D9
:10753000FFFFFF00FFFFFF00FFFFFF00FFFFFF0057
:10754000FFFFFF00FFFFFF00FFFFFF00FFFFFF0047
:10755000FFFFFF00FFFFFF00FFFFFF00FFFFFF0037
:10756000FFFFFF00FFFFFF00FFFFFF00FFFFFF0027
:10779000FFFFFF00FFFFFF00FFFFFF008745000026
:1077A00087450000874500008745000087450000A9
:1077B0008745000087450000874500008745000099
:1077C0008745000087450000A6734100E4D8C90042
:1077D0008745000087450000874500008745000079
:1077E0008745000087450000874500008745000069
:1077F0008745000087450000874500008745000059
:107800008745000087450000874500008745000048
:107810008745000087450000874500008745000038
:1078200087450000874602009D672F00B68D6300E4
:10783000C7A88900DAC5B000E3D4C600E8DDD100EE
:10784000EFE6DD00ECE2D900E7DACC00DECEBC00EA
:10785000CFB69B00BE997500A97A4A008E4F0F00E3
:1078600087450000874500008745000087450000E8
:1078700087450000874500008745000087450000D8
:1078800087450000874500008745000087450000C8
:1078900087450000874500008745000087450000B8
:1078A00087450000874500008745000087450000A8
:1078B00087450000AF835500D9C6B1008847040052
:1078C0008745000087450000874500008745000088
:1078D0008745000087450000874500008745000078
:1078E0008745000087450000C5A58300FFFFFF0016
:1078F000FFFFFF00FFFFFF00FFFFFF00FFFFFF0094
:10790000FFFFFF00FFFFFF00FFFFFF00FFFFFF0083
:10791000FFFFFF00FFFFFF00FFFFFF00FFFFFF0073
:10792000FFFFFF00FFFFFF00FFFFFF00FFFFFF0063
:107B5000FFFFFF00FFFFFF00FFFFFF008745000062
:107B600087450000874500008745000087450000E5
:107B700087450000874500008745000087450000D5
:107B8000874500009D672F00F7F3EF00E9DDD00087
:107B900087450000874500008745000087450000B5
:107BA00087450000874500008745000087450000A5
:107BB0008745000087450000874500008745000095
:107BC0008745000087450000874500008745000085
:107BD00087450000874500008A4A0800AF835500AA
:107BE000D7C2AB00F5F0EB00FFFFFF00FFFFFF0087
:107BF000FFFFFF00FFFFFF00FFFFFF00FFFFFF0091
:107C0000FFFFFF00FFFFFF00FFFFFF00FFFFFF0080
:107C1000FFFFFF00FFFFFF00FFFFFF00FEFDFC0076
:107C2000E6D8C900C2A27F00965F23008745000006
:107C30008745000087450000874500008745000014
:107C40008745000087450000874500008745000004
:107C500087450000874500008745000087450000F4
:107C600087450000874500008745000087450000E4
:107C700087450000AF835500FFFFFF00D3BAA10086
:107C800087450100874500008745000087450000C3
:107C900087450000874500008745000087450000B4
:107CA0008745000087450000C5A58300FFFFFF0052
:107CB000FFFFFF00FFFFFF00FFFFFF00FFFFFF00D0
:107CC000FFFFFF00FFFFFF00FFFFFF00FFFFFF00C0
:107CD000FFFFFF00FFFFFF00FFFFFF00FFFFFF00B0
:107CE000FFFFFF00FFFFFF00FFFFFF00FFFFFF00A0
:107F1000FFFFFF00FFFFFF00FFFFFF00874500009E
:107F20008745000087450000874500008745000021
:107F30008745000087450000874500008745000011
:107F4000965C2000F4EFE900FFFFFF00E9DDD000C0
:107F500087450000874500008745000087450000F1
:107F600087450000874500008745000087450000E1
:107F700087450000874500008745000087450000D1
:107F800087450000874500008745000087450000C1
:107F9000975D2100CDB09400F7F3EF00FFFFFF00E5
:107FA000FFFFFF00FFFFFF00FFFFFF00FFFFFF00DD
:107FB000FFFFFF00FFFFFF00FFFFFF00FFFFFF00CD
:107FC000FFFFFF00FFFFFF00FFFFFF00FFFFFF00BD
:107FD000FFFFFF00FFFFFF00FFFFFF00FFFFFF00AD
:107FE000FFFFFF00FFFFFF00FFFEFE00E3D4C50020
:107FF000AF82540087460200874500008745000095
:108000008745000087450000874500008745000040
:108010008745000087450000874500008745000030
:108020008745000087450000874500008745000020
:1080300087450000AF835500FFFFFF00FFFFFF00F3
:10804000C2A27F00874500008745000087450000E9
:1080500087450000874500008745000087450000F0
:108060008745000087450000C5A58300FFFFFF008E
:10807000FFFFFF00FFFFFF00FFFFFF00FFFFFF000C
:10808000FFFFFF00FFFFFF00FFFFFF00FFFFFF00FC
:10809000FFFFFF00FFFFFF00FFFFFF00FFFFFF00EC
:1080A000FFFFFF00FFFFFF00FFFFFF00FFFFFF00DC
:1082D000FFFFFF00FFFFFF00FFFFFF0087450000DB
:1082E000874500008745000087450000874500005E
:1082F0008745000087450000874500008948050044
:10830000E3D4C600FFFFFF00FFFFFF00E9DDD00060
:10831000874500008745000087450000874500002D
:10832000874500008745000087450000874500001D
:10833000874500008745000087450000874500000D
:108340008745000087450000955A1E00D3BAA1005A
:10835000FDFCFB00FFFFFF00FFFFFF00FFFFFF0032
:10836000FFFFFF00FFFFFF00FFFFFF00FFFFFF0019
:10837000FFFFFF00FFFFFF00FFFFFF00FFFFFF0009
:10838000FFFFFF00FFFFFF00FFFFFF00FFFFFF00F9
:10839000FFFFFF00FFFFFF00FFFFFF00FFFFFF00E9
:1083A000FFFFFF00FFFFFF00FFFFFF00FFFFFF00D9
:1083B000FFFFFF00ECE1D700AF85580087450000C4
:1083C000874500008745000087450000874500007D
:1083D000874500008745000087450000874500006D
:1083E000874500008745000087450000874500005D
:1083F00087450000AF835500FFFFFF00FFFFFF0030
:10840000FEFEFD00A7784700874500008745000075
:10841000874500008745000087450000874500002C
:108420008745000087450000C5A58300FFFFFF00CA
:10843000FFFFFF00FFFFFF00FFFFFF00FFFFFF0048
:10844000FFFFFF00FFFFFF00FFFFFF00FFFFFF0038
:10845000FFFFFF00FFFFFF00FFFFFF00FFFFFF0028
:10846000FFFFFF00FFFFFF00FFFFFF00FFFFFF0018
:10869000FFFFFF00FFFFFF00FFFFFF008745000017
:1086A000874500008745000087450000874500009A
:1086B000874500008745000087450000CAAF91004C
:1086C000FFFFFF00FFFFFF00FFFFFF00E9DDD0001D
:1086D000874500008745000087450000874500006A
:1086E000874500008745000087450000874500005A
:1086F000874500008745000087450000874500004A
:1087000089490600BF9B7700F9F7F400FFFFFF00DF
:10871000FFFFFF00FFFFFF00FFFFFF00FFFFFF0065
:10872000FFFFFF00FFFFFF00FFFFFF00FFFFFF0055
:10873000FFFFFF00FFFFFF00FFFFFF00FFFFFF0045
:10874000FFFFFF00FFFFFF00FFFFFF00FFFFFF0035
:10875000FFFFFF00FFFFFF00FFFFFF00FFFFFF0025
:10876000FFFFFF00FFFFFF00FFFFFF00FFFFFF0015
:10877000FFFFFF00FFFFFF00FFFFFF00DFD0BE0095
:108780009A632A008745000087450000874500005E
:1087900087450000874500008745000087450000A9
:1087A0008745000087450000874500008745000099
:1087B00087450000AF835500FFFFFF00FFFFFF006C
:1087C000FFFFFF00F5F0EA0093581B00874500000B
:1087D0008745000087450000874500008745000069
:1087E0008745000087450000C5A58300FFFFFF0007
:1087F000FFFFFF00FFFFFF00FFFFFF00FFFFFF0085
:10880000FFFFFF00FFFFFF00FFFFFF00FFFFFF0074
:10881000FFFFFF00FFFFFF00FFFFFF00FFFFFF0064
:10882000FFFFFF00FFFFFF00FFFFFF00FFFFFF0054
:108A2000FFFFFF00F3ECE600F1E9E200FFFFFF00CB
:108A3000FFFFFF00FFFFFF00FFFFFF00FFFFFF0042
:108A4000FFFFFF00FFFFFF00FFFFFF00FFFFFF0032
:108A5000FFFFFF00FFFFFF00FFFFFF008745000053
:108A600087450000874500008745000087450000D6
:108A70008745000087450000AC7F4F00FFFEFE00E9
:108A8000FFFFFF00FFFFFF00FFFFFF00E9DDD00059
:108A900087450000874500008745000087450000A6
:108AA0008745000087450000874500008745000096
:108AB000874500008745000087450000955B1F0043
:108AC000E5D5C700FFFFFF00FFFFFF00FFFFFF002E
:108AD000FFFFFF00FFFFFF00FFFFFF00FFFFFF00A2
:108AE000FFFFFF00FFFFFF00FFFFFF00FFFFFF0092
:108AF000FFFFFF00FFFFFF00FFFFFF00FFFFFF0082
:108B0000FFFFFF00FFFFFF00FFFFFF00FFFFFF0071
:108B1000FFFFFF00FFFFFF00FFFFFF00FFFFFF0061
:108B2000FFFFFF00FFFFFF00FFFFFF00FFFFFF0051
:108B3000FFFFFF00FFFFFF00FFFFFF00FFFFFF0041
:108B4000FCFAF800BA956E008745010087450000E1
:108B500087450000874500008745000087450000E5
:108B600087450000874500008745000087450000D5
:108B700087450000AF835500FFFFFF00FFFFFF00A8
:108B8000FFFFFF00FFFFFF00E2D2C10087460200A7
:108B900087450000874500008745000087450000A5
:108BA0008745000087450000C5A58300FFFFFF0043
:108BB000FFFFFF00FFFFFF00FFFFFF00FFFFFF00C1
:108BC000FFFFFF00FFFFFF00FFFFFF00FFFFFF00B1
:108BD000FFFFFF00FFFFFF00FFFFFF00FFFFFF00A1
:108BE000FFFFFF00FFFFFF00FFFFFF00FFFFFF0091
:108DD000FFFFFF00FFFFFF00FFFFFF00FDFBFA00AA
:108DE000CBAE90008D4F0E00B68D6400FFFFFF00EC
:108DF000FFFFFF00FFFFFF00FFFFFF00FFFFFF007F
:108E0000FFFFFF00FFFFFF00FFFFFF00FFFFFF006E
:108E1000FFFFFF00FFFFFF00FFFFFF00874500008F
:108E20008745000087450000874500008745000012
:108E3000874500008D4D0D00F1EAE400FFFFFF00C3
:108E4000FFFFFF00FFFFFF00FFFFFF00E9DDD00095
:108E500087450000874500008745000087450000E2
:108E600087450000874500008745000087450000D2
:108E70008745000087450000AD805100F8F5F100FE
:108E8000FFFFFF00FFFFFF00FFFFFF00FFFFFF00EE
:108E9000FFFFFF00FFFFFF00FFFFFF00FFFFFF00DE
:108EA000FFFFFF00FFFFFF00FFFFFF00FFFFFF00CE
:108EB000FFFFFF00FFFFFF00FFFFFF00FFFFFF00BE
:108EC000FFFFFF00FFFFFF00FFFFFF00FFFFFF00AE
:108ED000FFFFFF00FFFFFF00FFFFFF00FFFFFF009E
:108EE000FFFFFF00FFFFFF00FFFFFF00FFFFFF008E
:108EF000FFFFFF00FFFFFF00FFFFFF00FFFFFF007E
:108F0000FFFFFF00FFFFFF00D7C2AB008C4D0B003F
:108F10008745000087450000874500008745000021
:108F20008745000087450000874500008745000011
:108F300087450000AF835500FFFFFF00FFFFFF00E4
:108F4000FFFFFF00FFFFFF00FFFFFF00B69067007D
:108F500087450000874500008745000087450000E1
:108F60008745000087450000C5A58300FFFFFF007F
:108F7000FFFFFF00FFFFFF00FFFFFF00FFFFFF00FD
:108F8000FFFFFF00FFFFFF00FFFFFF00FFFFFF00ED
:108F9000FFFFFF00FFFFFF00FFFFFF00FFFFFF00DD
:108FA000FFFFFF00FFFFFF00FFFFFF00FFFFFF00CD
:10919000FFFFFF00FFFFFF00DAC7B300985F250065
:1091A00087450000874500008A4A0800F3EEE80082
:1091B000FFFFFF00FFFFFF00FFFFFF00FFFFFF00BB
:1091C000FFFFFF00FFFFFF00FFFFFF00FFFFFF00AB
:1091D000FFFFFF00FFFFFF00FFFFFF0087450000CC
:1091E000874500008745000087450000874500004F
:1091F00087450000CBAE9000FFFFFF00FFFFFF00A0
:10920000FFFFFF00FFFFFF00FFFFFF00E9DDD000D1
:10921000874500008745000087450000874500001E
:10922000874500008745000087450000874500000E
:1092300087450000B8916A00FEFEFD00FFFFFF00B9
:10924000FFFFFF00FFFFFF00FFFFFF00FFFFFF002A
:10925000FFFFFF00FFFFFF00FFFFFF00FFFFFF001A
:10926000FFFFFF00FFFFFF00FFFFFF00FFFFFF000A
:10927000FFFFFF00FFFFFF00FFFFFF00FFFFFF00FA
:10928000FFFFFF00FFFFFF00FFFFFF00FFFFFF00EA
:10929000FFFFFF00FFFFFF00FFFFFF00FFFFFF00DA
:1092A000FFFFFF00FFFFFF00FFFFFF00FFFFFF00CA
:1092B000FFFFFF00FFFFFF00FFFFFF00FFFFFF00BA
:1092C000FFFFFF00FFFFFF00FFFFFF00E6D7CA0020
:1092D0009054150087450000874500008745000031
:1092E000874500008745000087450000874500004E
:1092F00087450000AF835500FFFFFF00FFFFFF0021
:10930000FFFFFF00FFFFFF00FFFFFF00F7F3EE008E
:1093100091551600874500008745000087450000ED
:109320008745000087450000C5A58300FFFFFF00BB
:10933000FFFFFF00FFFFFF00FFFFFF00FFFFFF0039
:10934000FFFFFF00FFFFFF00FFFFFF00FFFFFF0029
:10935000FFFFFF00FFFFFF00FFFFFF00FFFFFF0019
:10936000FFFFFF00FFFFFF00FFFFFF00FFFFFF0009
:10955000EEE4DA00AA7B4C00874500008745000056
:10956000874500008745000087450000C1A07D00B9
:10957000FFFFFF00FFFFFF00FFFFFF00FFFFFF00F7
:10958000FFFFFF00FFFFFF00FFFFFF00FFFFFF00E7
:10959000FFFFFF00FFFFFF00FFFFFF008745000008
:1095A000874500008745000087450000874500008B
:1095B0009C652D00FDFCFB00FFFFFF00FFFFFF008F
:1095C000FFFFFF00FFFFFF00FFFFFF00E9DDD0000E
:1095D000874500008745000087450000874500005B
:1095E000874500008745000087450000874500004B
:1095F000C09F7B00FFFFFF00FFFFFF00FFFFFF009A
:10960000FFFFFF00FFFFFF00FFFFFF00FFFFFF0066
:10961000FFFFFF00FFFFFF00FFFFFF00FFFFFF0056
:10962000FFFFFF00FFFFFF00FFFFFF00FFFFFF0046
:10963000FFFFFF00FFFFFF00FFFFFF00FFFFFF0036
:10964000FFFFFF00FFFFFF00FFFFFF00FFFFFF0026
:10965000FFFFFF00FFFFFF00FFFFFF00FFFFFF0016
:10966000FFFFFF00FFFFFF00FFFFFF00FFFFFF0006
:10967000FFFFFF00FFFFFF00FFFFFF00FFFFFF00F6
:10968000FFFFFF00FFFFFF00FFFFFF00FFFFFF00E6
:10969000ECE3D80092571900874500008745000089
:1096A000874500008745000087450000874500008A
:1096B00087450000AF835500FFFFFF00FFFFFF005D
:1096C000FFFFFF00FFFFFF00FFFFFF00FFFFFF00A6
:1096D000D1BAA000874500008745000087450000FB
:1096E0008745000087450000C5A58300FFFFFF00F8
:1096F000FFFFFF00FFFFFF00FFFFFF00FFFFFF0076
:10970000FFFFFF00FFFFFF00FFFFFF00FFFFFF0065
:10971000FFFFFF00FFFFFF00FFFFFF00FFFFFF0055
:10972000FFFFFF00FFFFFF00FFFFFF00FFFFFF0045
:10990000FFFFFF00FFFFFF00F9F7F400C2A27F0096
:109910008A4A070087450000874500008745000008
:109920008745000087450000874500008E521200E1
:10993000F9F7F400FFFFFF00FFFFFF00FFFFFF004C
:10994000FFFFFF00FFFFFF00FFFFFF00FFFFFF0023
:10995000FFFFFF00FFFFFF00FFFFFF008745000044
:1099600087450000874500008745000087450000C7
:10997000DECBB900FFFFFF00FFFFFF00FFFFFF008E
:10998000FFFFFF00FFFFFF00FFFFFF00E9DDD0004A
:109990008745000087450000874500008745000097
:1099A000874500008745000087450000B7926900A1
:1099B000FFFFFF00FFFFFF00FFFFFF00FFFFFF00B3
:1099C000FFFFFF00FFFFFF00FFFFFF00FFFFFF00A3
:1099D000FFFFFF00FFFFFF00FFFFFF00FFFFFF0093
:1099E000FFFFFF00FFFFFF00FFFFFF00FFFFFF0083
:1099F000FFFFFF00FFFFFF00FFFFFF00FFFFFF0073
:109A0000FFFFFF00FFFFFF00FFFFFF00FFFFFF0062
:109A1000FFFFFF00FFFFFF00FFFFFF00FFFFFF0052
:109A2000FFFFFF00FFFFFF00FFFFFF00FFFFFF0042
:109A3000FFFFFF00FFFFFF00FFFFFF00FFFFFF0032
:109A4000FFFFFF00FFFFFF00FFFFFF00FFFFFF0022
:109A5000FFFFFF00E9DFD3008F51110087450000B1
:109A600087450000874500008745000087450000C6
:109A700087450000AF835500FFFFFF00FFFFFF0099
:109A8000FFFFFF00FFFFFF00FFFFFF00FFFFFF00E2
:109A9000FFFEFE009F6832008745000087450000FA
:109AA0008745000087450000C5A58300FFFFFF0034
:109AB000FFFFFF00FFFFFF00FFFFFF00FFFFFF00B2
:109AC000FFFFFF00FFFFFF00FFFFFF00FFFFFF00A2
:109AD000FFFFFF00FFFFFF00FFFFFF00FFFFFF0092
:109AE000FFFFFF00FFFFFF00FFFFFF00FFFFFF0082
:109CC000FFFFFF00FEFDFC00965F230087450000BC
:109CD0008745000087450000874500008745000054
:109CE00087450000975D2200BD987200E2D2C10056
:109CF000FEFDFC00FFFFFF00FFFFFF00FFFFFF0076
:109D0000FFFFFF00FFFFFF00FFFFFF00FFFFFF005F
:109D1000FFFFFF00FFFFFF00FFFFFF008745000080
:109D20008745000087450000874500009F68320096
:109D3000FFFEFE00FFFFFF00FFFFFF00FFFFFF0031
:109D4000FFFFFF00FFFFFF00FFFFFF00E9DDD00086
:109D500087450000874500008745000087450000D3
:109D60008745000087450000AD805100FEFEFD00E4
:109D7000FFFFFF00FFFFFF00FFFFFF00FFFFFF00EF
:109D8000FFFFFF00FFFFFF00FFFFFF00FFFFFF00DF
:109D9000FFFFFF00FFFFFF00FFFFFF00FFFFFF00CF
:109DA000FFFFFF00FFFFFF00FFFFFF00FFFFFF00BF
:109DB000FFFFFF00FFFFFF00FFFFFF00FFFFFF00AF
:109DC000FFFFFF00FFFFFF00FFFFFF00FFFFFF009F
:109DD000FFFFFF00FFFFFF00FFFFFF00FFFFFF008F
:109DE000FFFFFF00FFFFFF00FFFFFF00FFFFFF007F
:109DF000FFFFFF00FFFFFF00FFFFFF00FFFFFF006F
:109E0000FFFFFF00FFFFFF00FFFFFF00FFFFFF005E
:109E1000FFFFFF00FFFFFF00E1D1C0008847040003
:109E20008745000087450000874500008745000002
:109E300087450000AF835500FFFFFF00FFFFFF00D5
:109E4000FFFFFF00FFFFFF00FFFFFF00FFFFFF001E
:109E5000FFFFFF00D6BFA90087450000874500002F
:109E60008745000087450000C5A58300FFFFFF0070
:109E7000FFFFFF00FFFFFF00FFFFFF00FFFFFF00EE
:109E8000FFFFFF00FFFFFF00FFFFFF00FFFFFF00DE
:109E9000FFFFFF00FFFFFF00FFFFFF00FFFFFF00CE
:109EA000FFFFFF00FFFFFF00FFFFFF00FFFFFF00BE
:10A08000FFFFFF00FFFFFF00B8916A008745000057
:10A0900087450000874500009F683200C4A3810007
:10A0A000E8DDD100FFFFFF00FFFFFF00FFFFFF0023
:10A0B000FFFFFF00FFFFFF00FFFFFF00FFFFFF00AC
:10A0C000FFFFFF00FFFFFF00FFFFFF00FFFFFF009C
:10A0D000FFFFFF00FFFFFF00FFFFFF0087450000BD
:10A0E000874500008745000087450000D9C6B100BC
:10A0F000FFFFFF00FFFFFF00FFFFFF00FFFFFF006C
:10A10000FFFFFF00FFFFFF00FFFFFF00E9DDD000C2
:10A11000874500008745000087450000874500000F
:10A1200087450000965F2300F8F4F000FFFFFF0072
:10A13000FFFFFF00FFFFFF00FFFFFF00FFFFFF002B
:10A14000FFFFFF00FFFFFF00FFFFFF00FFFFFF001B
:10A15000FFFFFF00FFFFFF00FFFFFF00FFFFFF000B
:10A16000FFFFFF00FFFFFF00FFFFFF00FFFFFF00FB
:10A17000FFFFFF00FFFFFF00FFFFFF00FFFFFF00EB
:10A18000FFFFFF00FFFFFF00FFFFFF00FFFFFF00DB
:10A19000FFFFFF00FFFFFF00FFFFFF00FFFFFF00CB
:10A1A000FFFFFF00FFFFFF00FFFFFF00FFFFFF00BB
:10A1B000FFFFFF00FFFFFF00FFFFFF00FFFFFF00AB
:10A1C000FFFFFF00FFFFFF00FFFFFF00FFFFFF009B
:10A1D000FFFFFF00FFFFFF00FFFFFF00C7A8890090
:10A1E000874500008745000087450000874500003F
:10A1F00087450000AF835500FFFFFF00FFFFFF0012
:10A20000FFFFFF00FFFFFF00FFFFFF00FFFFFF005A
:10A21000FFFFFF00FEFEFD009B652C008745000050
:10A220008745000087450000C5A58300FFFFFF00AC
:10A23000FFFFFF00FFFFFF00FFFFFF00FFFFFF002A
:10A24000FFFFFF00FFFFFF00FFFFFF00FFFFFF001A
:10A25000FFFFFF00FFFFFF00FFFFFF00FFFFFF000A
:10A26000FFFFFF00FFFFFF00FFFFFF00FFFFFF00FA
:10A44000FFFFFF00FFFFFF00EEE5DC00A675420006
:10A45000CAAF9100F0E8E000FFFFFF00FFFFFF0040
:10A46000FFFFFF00FFFFFF00FFFFFF00FFFFFF00F8
:10A47000FFFFFF00FFFFFF00FFFFFF00FFFFFF00E8
:10A48000FFFFFF00FFFFFF00FFFFFF00FFFFFF00D8
:10A49000FFFFFF00FFFFFF00FFFFFF0087450000F9
:10A4A00087450000874500009B652C00FFFEFE00ED
:10A4B000FFFFFF00FFFFFF00FFFFFF00FFFFFF00A8
:10A4C000FFFFFF00FFFFFF00FFFFFF00E9DDD000FF
:10A4D000874500008745000087450000874500004C
:10A4E00089480500E7DACD00FFFFFF00FFFFFF000E
:10A4F000FFFFFF00FFFFFF00FFFFFF00FFFFFF0068
:10A50000FFFFFF00FFFFFF00FFFFFF00FFFFFF0057
:10A51000FFFFFF00FFFFFF00FFFFFF00FFFFFF0047
:10A52000FFFFFF00FFFFFF00FFFFFF00FFFFFF0037
:10A53000FFFFFF00FFFFFF00FFFFFF00FFFFFF0027
:10A54000FFFFFF00FFFFFF00FFFFFF00FFFFFF0017
:10A55000FFFFFF00FFFFFF00FFFFFF00FFFFFF0007
:10A56000FFFFFF00FFFFFF00FFFFFF00FFFFFF00F7
:10A57000FFFFFF00FFFFFF00FFFFFF00FFFFFF00E7
:10A58000FFFFFF00FFFFFF00FFFFFF00FFFFFF00D7
:10A59000FFFFFF00FFFFFF00FFFFFF00FFFEFE00C9
:10A5A000A97A4900874500008745000087450000DB
:10A5B00087450000AF835500FFFFFF00FFFFFF004E
:10A5C000FFFFFF00FFFFFF00FFFFFF00FFFFFF0097
:10A5D000FFFFFF00FFFFFF00D1BAA000874500008A
:10A5E0008745000087450000C5A58300FFFFFF00E9
:10A5F000FFFFFF00FFFFFF00FFFFFF00FFFFFF0067
:10A60000FFFFFF00FFFFFF00FFFFFF00FFFFFF0056
:10A61000FFFFFF00FFFFFF00FFFFFF00FFFFFF0046
:10A62000FFFFFF00FFFFFF00FFFFFF00FFFFFF0036
:10A85000FFFFFF00FFFFFF00FFFFFF008745000035
:10A860008745000087450000C9AC8F00FFFFFF004F
:10A87000FFFFFF00FFFFFF00FFFFFF00FFFFFF00E4
:10A88000FFFFFF00FFFFFF00FFFFFF00E9DDD0003B
:10A890008745000087450000874500008745000088
:10A8A000BF9B7600FFFFFF00FFFFFF00FFFFFF00E1
:10A8B000FFFFFF00FFFFFF00FFFFFF00FFFFFF00A4
:10A8C000FFFFFF00FFFFFF00FFFFFF00FFFFFF0094
:10A8D000FFFFFF00FFFFFF00FFFFFF00FFFFFF0084
:10A8E000FFFFFF00FFFFFF00FFFFFF00FFFFFF0074
:10A8F000FFFFFF00FFFFFF00FFFFFF00FFFFFF0064
:10A90000FFFFFF00FFFFFF00FFFFFF00FFFFFF0053
:10A91000FFFFFF00FFFFFF00FFFFFF00FFFFFF0043
:10A92000FFFFFF00FFFFFF00FFFFFF00FFFFFF0033
:10A93000FFFFFF00FFFFFF00FFFFFF00FFFFFF0023
:10A94000FFFFFF00FFFFFF00FFFFFF00FFFFFF0013
:10A95000FFFFFF00FFFFFF00FFFFFF00FFFFFF0003
:10A96000F1E9E1008C4D0C008745000087450000AF
:10A9700087450000AF835500FFFFFF00FFFFFF008A
:10A98000FFFFFF00FFFFFF00FFFFFF00FFFFFF00D3
:10A99000FFFFFF00FFFFFF00FBF8F6008E4F0F00E8
:10A9A0008745000087450000C5A58300FFFFFF0025
:10A9B000FFFFFF00FFFFFF00FFFFFF00FFFFFF00A3
:10A9C000FFFFFF00FFFFFF00FFFFFF00FFFFFF0093
:10A9D000FFFFFF00FFFFFF00FFFFFF00FFFFFF0083
:10A9E000FFFFFF00FFFFFF00FFFFFF00FFFFFF0073
:10A9F000FFFFFF00FFFFFF00FFFFFF00FFFFFF0063
:10AA0000F9F7F400EFE6DD00EFE6DD00EFE6DD004C
:10AA1000EFE6DD00EFE6DD00EFE6DD00EFE6DD006E
:10AA2000EFE6DD00EFE6DD00EFE6DD00EFE6DD005E
:10AA3000EFE6DD00F7F2ED00FFFFFF00FFFFFF0094
:10AA4000FFFFFF00FFFFFF00FFFFFF00FFFFFF0012
:10AA5000FFFFFF00FFFFFF00FFFFFF00FFFFFF0002
:10AA6000FFFFFF00EFE8DF00EFE6DD00EFE6DD00CF
:10AA7000EFE6DD00EFE6DD00EFE6DD00EFE6DD000E
:10AA8000EFE6DD00EFE6DD00EFE6DD00EFE6DD00FE
:10AA9000EFE6DD00EFE6DD00FBF9F700FFFFFF006A
:10AAA000FFFFFF00FFFFFF00FFFFFF00FFFFFF00B2
:10AAB000FFFFFF00FFFFFF00FFFFFF00FFFFFF00A2
:10AAC000FFFFFF00FFFFFF00F1E9E200EFE6DD001E
:10AAD000EFE6DD00EFE6DD00EFE6DD00EFE6DD00AE
:10AAE000EFE6DD00EFE6DD00EFE6DD00EFE6DD009E
:10AAF000EFE6DD00EFE6DD00F7F3EF00FFFFFF001C
:10AB0000FFFFFF00FFFFFF00FFFFFF00FFFFFF0051
:10AB1000FFFFFF00FFFFFF00FFFFFF00FFFFFF0041
:10AB2000FFFFFF00FFFFFF00F9F6F300EFE6DD0097
:10AB3000EFE6DD00EFE6DD00EFE6DD00EFE6DD004D
:10AB4000EFE6DD00EFE6DD00F3ECE600FFFFFF00DF
:10AB5000FFFFFF00FFFFFF00FFFFFF00FFFFFF0001
:10AB6000FFFFFF00FFFFFF00FFFFFF00FFFFFF00F1
:10AB7000FAF8F500EFE6DD00EFE6DD00EFE6DD00D8
:10AB8000EFE6DD00EFE6DD00EFE6DD00EFE6DD00FD
:10AB9000F2EBE300FFFFFF00FFFFFF00FFFFFF00FE
:10ABA000FFFFFF00FFFFFF00FFFFFF00FFFFFF00B1
:10ABB000FFFFFF00FFFFFF00FFFFFF00FFFFFF00A1
:10ABC000FCFAF800EFE6DD00EFE6DD00EFE6DD0081
:10ABD000EFE6DD00EFE6DD00EFE6DD00EFE6DD00AD
:10ABE000EFE6DD00EFE6DD00EFE6DD00EFE6DD009D
:10ABF000EFE6DD00FDFBFA00FFFFFF00FFFFFF00B7
:10AC0000FFFFFF00FFFFFF00FFFFFF00FFFFFF0050
:10AC1000FFFFFF00FFFFFF00FFFFFF008745000071
:10AC20008745000088470400F3EDE700FFFFFF00C1
:10AC3000FFFFFF00FFFFFF00FFFFFF00FFFFFF0020
:10AC4000FFFFFF00FFFFFF00FFFFFF00E9DDD00077
:10AC5000874500008745000087450000945A1D0085
:10AC6000F9F6F300FFFFFF00FFFFFF00FFFFFF000B
:10AC7000FFFFFF00FFFFFF00FFFFFF00FFFFFF00E0
:10AC8000FFFFFF00FFFFFF00FFFFFF00FFFFFF00D0
:10AC9000FFFFFF00FFFFFF00FFFFFF00FFFFFF00C0
:10ACA000FFFFFF00FFFFFF00FFFFFF00FFFFFF00B0
:10ACB000FFFFFF00FFFFFF00FFFFFF00FFFFFF00A0
:10ACC000FFFFFF00FFFFFF00FFFFFF00FFFFFF0090
:10ACD000FFFFFF00FFFFFF00FFFFFF00FFFFFF0080
:10ACE000FFFFFF00FFFFFF00FFFFFF00FFFFFF0070
:10ACF000FFFFFF00FFFFFF00FFFFFF00FFFFFF0060
:10AD0000FFFFFF00FFFFFF00FFFFFF00FFFFFF004F
:10AD1000FFFFFF00FFFFFF00FFFFFF00FFFFFF003F
:10AD2000FFFFFF00C7A88800874500008745000097
:10AD300087450000AF835500FFFFFF00FFFFFF00C6
:10AD4000FFFFFF00FFFFFF00FFFFFF00FFFFFF000F
:10AD5000FFFFFF00FFFFFF00FFFFFF00B58B62005A
:10AD60008745000087450000C5A58300FFFFFF0061
:10AD7000FFFFFF00FFFFFF00FFFFFF00FFFFFF00DF
:10AD8000FFFFFF00FFFFFF00FFFFFF00FFFFFF00CF
:10AD9000FFFFFF00FFFFFF00FFFFFF00FFFFFF00BF
